{
  "_format": "hh-sol-artifact-1",
  "contractName": "MyGame",
  "sourceName": "contracts/MyGame.sol",
  "abi": [
    {
      "inputs": [
        {
          "internalType": "string[]",
          "name": "characterNames",
          "type": "string[]"
        },
        {
          "internalType": "string[]",
          "name": "characterImageURIs",
          "type": "string[]"
        },
        {
          "internalType": "uint256[]",
          "name": "characterHp",
          "type": "uint256[]"
        },
        {
          "internalType": "uint256[]",
          "name": "characterAttackDmg",
          "type": "uint256[]"
        },
        {
          "internalType": "string",
          "name": "bossName",
          "type": "string"
        },
        {
          "internalType": "string",
          "name": "bossImageURI",
          "type": "string"
        },
        {
          "internalType": "uint256",
          "name": "bossHp",
          "type": "uint256"
        },
        {
          "internalType": "uint256",
          "name": "bossAttackDamage",
          "type": "uint256"
        }
      ],
      "stateMutability": "nonpayable",
      "type": "constructor"
    },
    {
      "anonymous": false,
      "inputs": [
        {
          "indexed": true,
          "internalType": "address",
          "name": "owner",
          "type": "address"
        },
        {
          "indexed": true,
          "internalType": "address",
          "name": "approved",
          "type": "address"
        },
        {
          "indexed": true,
          "internalType": "uint256",
          "name": "tokenId",
          "type": "uint256"
        }
      ],
      "name": "Approval",
      "type": "event"
    },
    {
      "anonymous": false,
      "inputs": [
        {
          "indexed": true,
          "internalType": "address",
          "name": "owner",
          "type": "address"
        },
        {
          "indexed": true,
          "internalType": "address",
          "name": "operator",
          "type": "address"
        },
        {
          "indexed": false,
          "internalType": "bool",
          "name": "approved",
          "type": "bool"
        }
      ],
      "name": "ApprovalForAll",
      "type": "event"
    },
    {
      "anonymous": false,
      "inputs": [
        {
          "indexed": false,
          "internalType": "uint256",
          "name": "newBossHp",
          "type": "uint256"
        },
        {
          "indexed": false,
          "internalType": "uint256",
          "name": "newPlayerHp",
          "type": "uint256"
        }
      ],
      "name": "AttackComplete",
      "type": "event"
    },
    {
      "anonymous": false,
      "inputs": [
        {
          "indexed": false,
          "internalType": "address",
          "name": "sender",
          "type": "address"
        },
        {
          "indexed": false,
          "internalType": "uint256",
          "name": "tokenId",
          "type": "uint256"
        },
        {
          "indexed": false,
          "internalType": "uint256",
          "name": "characterIndex",
          "type": "uint256"
        }
      ],
      "name": "CharacterNFTMinted",
      "type": "event"
    },
    {
      "anonymous": false,
      "inputs": [
        {
          "indexed": true,
          "internalType": "address",
          "name": "from",
          "type": "address"
        },
        {
          "indexed": true,
          "internalType": "address",
          "name": "to",
          "type": "address"
        },
        {
          "indexed": true,
          "internalType": "uint256",
          "name": "tokenId",
          "type": "uint256"
        }
      ],
      "name": "Transfer",
      "type": "event"
    },
    {
      "inputs": [
        {
          "internalType": "address",
          "name": "to",
          "type": "address"
        },
        {
          "internalType": "uint256",
          "name": "tokenId",
          "type": "uint256"
        }
      ],
      "name": "approve",
      "outputs": [],
      "stateMutability": "nonpayable",
      "type": "function"
    },
    {
      "inputs": [],
      "name": "attackBoss",
      "outputs": [],
      "stateMutability": "nonpayable",
      "type": "function"
    },
    {
      "inputs": [
        {
          "internalType": "address",
          "name": "owner",
          "type": "address"
        }
      ],
      "name": "balanceOf",
      "outputs": [
        {
          "internalType": "uint256",
          "name": "",
          "type": "uint256"
        }
      ],
      "stateMutability": "view",
      "type": "function"
    },
    {
      "inputs": [],
      "name": "bigBoss",
      "outputs": [
        {
          "internalType": "string",
          "name": "name",
          "type": "string"
        },
        {
          "internalType": "string",
          "name": "imageURI",
          "type": "string"
        },
        {
          "internalType": "uint256",
          "name": "hp",
          "type": "uint256"
        },
        {
          "internalType": "uint256",
          "name": "maxHp",
          "type": "uint256"
        },
        {
          "internalType": "uint256",
          "name": "attackDamage",
          "type": "uint256"
        }
      ],
      "stateMutability": "view",
      "type": "function"
    },
    {
      "inputs": [],
      "name": "checkIfUserHasNFT",
      "outputs": [
        {
          "components": [
            {
              "internalType": "uint256",
              "name": "characterIndex",
              "type": "uint256"
            },
            {
              "internalType": "string",
              "name": "name",
              "type": "string"
            },
            {
              "internalType": "string",
              "name": "imageURI",
              "type": "string"
            },
            {
              "internalType": "uint256",
              "name": "hp",
              "type": "uint256"
            },
            {
              "internalType": "uint256",
              "name": "maxHp",
              "type": "uint256"
            },
            {
              "internalType": "uint256",
              "name": "attackDamage",
              "type": "uint256"
            }
          ],
          "internalType": "struct MyGame.CharacterStats",
          "name": "",
          "type": "tuple"
        }
      ],
      "stateMutability": "view",
      "type": "function"
    },
    {
      "inputs": [],
      "name": "getAllDefaultCharacters",
      "outputs": [
        {
          "components": [
            {
              "internalType": "uint256",
              "name": "characterIndex",
              "type": "uint256"
            },
            {
              "internalType": "string",
              "name": "name",
              "type": "string"
            },
            {
              "internalType": "string",
              "name": "imageURI",
              "type": "string"
            },
            {
              "internalType": "uint256",
              "name": "hp",
              "type": "uint256"
            },
            {
              "internalType": "uint256",
              "name": "maxHp",
              "type": "uint256"
            },
            {
              "internalType": "uint256",
              "name": "attackDamage",
              "type": "uint256"
            }
          ],
          "internalType": "struct MyGame.CharacterStats[]",
          "name": "",
          "type": "tuple[]"
        }
      ],
      "stateMutability": "view",
      "type": "function"
    },
    {
      "inputs": [
        {
          "internalType": "uint256",
          "name": "tokenId",
          "type": "uint256"
        }
      ],
      "name": "getApproved",
      "outputs": [
        {
          "internalType": "address",
          "name": "",
          "type": "address"
        }
      ],
      "stateMutability": "view",
      "type": "function"
    },
    {
      "inputs": [],
      "name": "getBigBoss",
      "outputs": [
        {
          "components": [
            {
              "internalType": "string",
              "name": "name",
              "type": "string"
            },
            {
              "internalType": "string",
              "name": "imageURI",
              "type": "string"
            },
            {
              "internalType": "uint256",
              "name": "hp",
              "type": "uint256"
            },
            {
              "internalType": "uint256",
              "name": "maxHp",
              "type": "uint256"
            },
            {
              "internalType": "uint256",
              "name": "attackDamage",
              "type": "uint256"
            }
          ],
          "internalType": "struct MyGame.BigBoss",
          "name": "",
          "type": "tuple"
        }
      ],
      "stateMutability": "view",
      "type": "function"
    },
    {
      "inputs": [
        {
          "internalType": "address",
          "name": "owner",
          "type": "address"
        },
        {
          "internalType": "address",
          "name": "operator",
          "type": "address"
        }
      ],
      "name": "isApprovedForAll",
      "outputs": [
        {
          "internalType": "bool",
          "name": "",
          "type": "bool"
        }
      ],
      "stateMutability": "view",
      "type": "function"
    },
    {
      "inputs": [
        {
          "internalType": "uint256",
          "name": "_characterIndex",
          "type": "uint256"
        }
      ],
      "name": "mintCharacterNFT",
      "outputs": [],
      "stateMutability": "nonpayable",
      "type": "function"
    },
    {
      "inputs": [],
      "name": "name",
      "outputs": [
        {
          "internalType": "string",
          "name": "",
          "type": "string"
        }
      ],
      "stateMutability": "view",
      "type": "function"
    },
    {
      "inputs": [
        {
          "internalType": "uint256",
          "name": "",
          "type": "uint256"
        }
      ],
      "name": "nftHolderStats",
      "outputs": [
        {
          "internalType": "uint256",
          "name": "characterIndex",
          "type": "uint256"
        },
        {
          "internalType": "string",
          "name": "name",
          "type": "string"
        },
        {
          "internalType": "string",
          "name": "imageURI",
          "type": "string"
        },
        {
          "internalType": "uint256",
          "name": "hp",
          "type": "uint256"
        },
        {
          "internalType": "uint256",
          "name": "maxHp",
          "type": "uint256"
        },
        {
          "internalType": "uint256",
          "name": "attackDamage",
          "type": "uint256"
        }
      ],
      "stateMutability": "view",
      "type": "function"
    },
    {
      "inputs": [
        {
          "internalType": "address",
          "name": "",
          "type": "address"
        }
      ],
      "name": "nftHolders",
      "outputs": [
        {
          "internalType": "uint256",
          "name": "",
          "type": "uint256"
        }
      ],
      "stateMutability": "view",
      "type": "function"
    },
    {
      "inputs": [
        {
          "internalType": "uint256",
          "name": "tokenId",
          "type": "uint256"
        }
      ],
      "name": "ownerOf",
      "outputs": [
        {
          "internalType": "address",
          "name": "",
          "type": "address"
        }
      ],
      "stateMutability": "view",
      "type": "function"
    },
    {
      "inputs": [
        {
          "internalType": "address",
          "name": "from",
          "type": "address"
        },
        {
          "internalType": "address",
          "name": "to",
          "type": "address"
        },
        {
          "internalType": "uint256",
          "name": "tokenId",
          "type": "uint256"
        }
      ],
      "name": "safeTransferFrom",
      "outputs": [],
      "stateMutability": "nonpayable",
      "type": "function"
    },
    {
      "inputs": [
        {
          "internalType": "address",
          "name": "from",
          "type": "address"
        },
        {
          "internalType": "address",
          "name": "to",
          "type": "address"
        },
        {
          "internalType": "uint256",
          "name": "tokenId",
          "type": "uint256"
        },
        {
          "internalType": "bytes",
          "name": "_data",
          "type": "bytes"
        }
      ],
      "name": "safeTransferFrom",
      "outputs": [],
      "stateMutability": "nonpayable",
      "type": "function"
    },
    {
      "inputs": [
        {
          "internalType": "address",
          "name": "operator",
          "type": "address"
        },
        {
          "internalType": "bool",
          "name": "approved",
          "type": "bool"
        }
      ],
      "name": "setApprovalForAll",
      "outputs": [],
      "stateMutability": "nonpayable",
      "type": "function"
    },
    {
      "inputs": [
        {
          "internalType": "bytes4",
          "name": "interfaceId",
          "type": "bytes4"
        }
      ],
      "name": "supportsInterface",
      "outputs": [
        {
          "internalType": "bool",
          "name": "",
          "type": "bool"
        }
      ],
      "stateMutability": "view",
      "type": "function"
    },
    {
      "inputs": [],
      "name": "symbol",
      "outputs": [
        {
          "internalType": "string",
          "name": "",
          "type": "string"
        }
      ],
      "stateMutability": "view",
      "type": "function"
    },
    {
      "inputs": [
        {
          "internalType": "uint256",
          "name": "_tokenId",
          "type": "uint256"
        }
      ],
      "name": "tokenURI",
      "outputs": [
        {
          "internalType": "string",
          "name": "",
          "type": "string"
        }
      ],
      "stateMutability": "view",
      "type": "function"
    },
    {
      "inputs": [
        {
          "internalType": "address",
          "name": "from",
          "type": "address"
        },
        {
          "internalType": "address",
          "name": "to",
          "type": "address"
        },
        {
          "internalType": "uint256",
          "name": "tokenId",
          "type": "uint256"
        }
      ],
      "name": "transferFrom",
      "outputs": [],
      "stateMutability": "nonpayable",
      "type": "function"
    }
  ],
  "bytecode": "0x60806040523480156200001157600080fd5b506040516200573238038062005732833981810160405281019062000037919062000a85565b6040518060400160405280600681526020017f6e696e6a617300000000000000000000000000000000000000000000000000008152506040518060400160405280600281526020017f4e4a0000000000000000000000000000000000000000000000000000000000008152508160009080519060200190620000bb929190620007ed565b508060019080519060200190620000d4929190620007ed565b50505060005b88518110156200050a5760076040518060c001604052808381526020018b848151811062000131577f4e487b7100000000000000000000000000000000000000000000000000000000600052603260045260246000fd5b602002602001015181526020018a848151811062000178577f4e487b7100000000000000000000000000000000000000000000000000000000600052603260045260246000fd5b60200260200101518152602001898481518110620001bf577f4e487b7100000000000000000000000000000000000000000000000000000000600052603260045260246000fd5b6020026020010151815260200189848151811062000206577f4e487b7100000000000000000000000000000000000000000000000000000000600052603260045260246000fd5b602002602001015181526020018884815181106200024d577f4e487b7100000000000000000000000000000000000000000000000000000000600052603260045260246000fd5b60200260200101518152509080600181540180825580915050600190039060005260206000209060060201600090919091909150600082015181600001556020820151816001019080519060200190620002a9929190620007ed565b506040820151816002019080519060200190620002c8929190620007ed565b50606082015181600301556080820151816004015560a08201518160050155505060006007828154811062000326577f4e487b7100000000000000000000000000000000000000000000000000000000600052603260045260246000fd5b90600052602060002090600602016040518060c0016040529081600082015481526020016001820180546200035b9062000e08565b80601f0160208091040260200160405190810160405280929190818152602001828054620003899062000e08565b8015620003da5780601f10620003ae57610100808354040283529160200191620003da565b820191906000526020600020905b815481529060010190602001808311620003bc57829003601f168201915b50505050508152602001600282018054620003f59062000e08565b80601f0160208091040260200160405190810160405280929190818152602001828054620004239062000e08565b8015620004745780601f10620004485761010080835404028352916020019162000474565b820191906000526020600020905b8154815290600101906020018083116200045657829003601f168201915b5050505050815260200160038201548152602001600482015481526020016005820154815250509050620004db604051806060016040528060218152602001620056e7602191398260200151836060015184604001516200070260201b62001cf61760201c565b620004f26006620007ae60201b62001d981760201c565b5060018162000502919062000d6b565b9050620000da565b506040518060a0016040528085815260200184815260200183815260200183815260200182815250600a600082015181600001908051906020019062000552929190620007ed565b50602082015181600101908051906020019062000571929190620007ed565b50604082015181600201556060820151816003015560808201518160040155905050620006f46040518060600160405280602a815260200162005708602a9139600a6000018054620005c39062000e08565b80601f0160208091040260200160405190810160405280929190818152602001828054620005f19062000e08565b8015620006425780601f10620006165761010080835404028352916020019162000642565b820191906000526020600020905b8154815290600101906020018083116200062457829003601f168201915b5050505050600a60020154600a60010180546200065f9062000e08565b80601f01602080910402602001604051908101604052809291908181526020018280546200068d9062000e08565b8015620006de5780601f10620006b257610100808354040283529160200191620006de565b820191906000526020600020905b815481529060010190602001808311620006c057829003601f168201915b50505050506200070260201b62001cf61760201c565b505050505050505062000f2c565b620007a8848484846040516024016200071f949392919062000c30565b6040516020818303038152906040527f8d142cdd000000000000000000000000000000000000000000000000000000007bffffffffffffffffffffffffffffffffffffffffffffffffffffffff19166020820180517bffffffffffffffffffffffffffffffffffffffffffffffffffffffff8381831617835250505050620007c460201b60201c565b50505050565b6001816000016000828254019250508190555050565b60008151905060006a636f6e736f6c652e6c6f679050602083016000808483855afa5050505050565b828054620007fb9062000e08565b90600052602060002090601f0160209004810192826200081f57600085556200086b565b82601f106200083a57805160ff19168380011785556200086b565b828001600101855582156200086b579182015b828111156200086a5782518255916020019190600101906200084d565b5b5090506200087a91906200087e565b5090565b5b80821115620008995760008160009055506001016200087f565b5090565b6000620008b4620008ae8462000cbb565b62000c92565b90508083825260208201905082856020860282011115620008d457600080fd5b60005b858110156200092357815167ffffffffffffffff811115620008f857600080fd5b80860162000907898262000a41565b85526020850194506020840193505050600181019050620008d7565b5050509392505050565b6000620009446200093e8462000cea565b62000c92565b905080838252602082019050828560208602820111156200096457600080fd5b60005b858110156200099857816200097d888262000a6e565b84526020840193506020830192505060018101905062000967565b5050509392505050565b6000620009b9620009b38462000d19565b62000c92565b905082815260208101848484011115620009d257600080fd5b620009df84828562000dd2565b509392505050565b600082601f830112620009f957600080fd5b815162000a0b8482602086016200089d565b91505092915050565b600082601f83011262000a2657600080fd5b815162000a388482602086016200092d565b91505092915050565b600082601f83011262000a5357600080fd5b815162000a65848260208601620009a2565b91505092915050565b60008151905062000a7f8162000f12565b92915050565b600080600080600080600080610100898b03121562000aa357600080fd5b600089015167ffffffffffffffff81111562000abe57600080fd5b62000acc8b828c01620009e7565b985050602089015167ffffffffffffffff81111562000aea57600080fd5b62000af88b828c01620009e7565b975050604089015167ffffffffffffffff81111562000b1657600080fd5b62000b248b828c0162000a14565b965050606089015167ffffffffffffffff81111562000b4257600080fd5b62000b508b828c0162000a14565b955050608089015167ffffffffffffffff81111562000b6e57600080fd5b62000b7c8b828c0162000a41565b94505060a089015167ffffffffffffffff81111562000b9a57600080fd5b62000ba88b828c0162000a41565b93505060c062000bbb8b828c0162000a6e565b92505060e062000bce8b828c0162000a6e565b9150509295985092959890939650565b600062000beb8262000d4f565b62000bf7818562000d5a565b935062000c0981856020860162000dd2565b62000c148162000f01565b840191505092915050565b62000c2a8162000dc8565b82525050565b6000608082019050818103600083015262000c4c818762000bde565b9050818103602083015262000c62818662000bde565b905062000c73604083018562000c1f565b818103606083015262000c87818462000bde565b905095945050505050565b600062000c9e62000cb1565b905062000cac828262000e3e565b919050565b6000604051905090565b600067ffffffffffffffff82111562000cd95762000cd862000ed2565b5b602082029050602081019050919050565b600067ffffffffffffffff82111562000d085762000d0762000ed2565b5b602082029050602081019050919050565b600067ffffffffffffffff82111562000d375762000d3662000ed2565b5b62000d428262000f01565b9050602081019050919050565b600081519050919050565b600082825260208201905092915050565b600062000d788262000dc8565b915062000d858362000dc8565b9250827fffffffffffffffffffffffffffffffffffffffffffffffffffffffffffffffff0382111562000dbd5762000dbc62000e74565b5b828201905092915050565b6000819050919050565b60005b8381101562000df257808201518184015260208101905062000dd5565b8381111562000e02576000848401525b50505050565b6000600282049050600182168062000e2157607f821691505b6020821081141562000e385762000e3762000ea3565b5b50919050565b62000e498262000f01565b810181811067ffffffffffffffff8211171562000e6b5762000e6a62000ed2565b5b80604052505050565b7f4e487b7100000000000000000000000000000000000000000000000000000000600052601160045260246000fd5b7f4e487b7100000000000000000000000000000000000000000000000000000000600052602260045260246000fd5b7f4e487b7100000000000000000000000000000000000000000000000000000000600052604160045260246000fd5b6000601f19601f8301169050919050565b62000f1d8162000dc8565b811462000f2957600080fd5b50565b6147ab8062000f3c6000396000f3fe608060405234801561001057600080fd5b50600436106101375760003560e01c806395d89b41116100b8578063b953084e1161007c578063b953084e14610369578063c87b56dd14610387578063c8cf27f4146103b7578063d4f24c5b146103d5578063e985e9c5146103df578063f8b81ef71461040f57610137565b806395d89b41146102bc578063a22cb465146102da578063a3c51c93146102f6578063a9c326791461032b578063b88d4fde1461034d57610137565b806323b872dd116100ff57806323b872dd146101f457806342842e0e146102105780636352211e1461022c57806370a082311461025c5780637df124a11461028c57610137565b806301ffc9a71461013c5780630665f9611461016c57806306fdde031461018a578063081812fc146101a8578063095ea7b3146101d8575b600080fd5b61015660048036038101906101519190612f31565b61042b565b6040516101639190613796565b60405180910390f35b61017461050d565b6040516101819190613af1565b60405180910390f35b610192610669565b60405161019f91906137b1565b60405180910390f35b6101c260048036038101906101bd9190612f83565b6106fb565b6040516101cf91906136d6565b60405180910390f35b6101f260048036038101906101ed9190612ef5565b610780565b005b61020e60048036038101906102099190612def565b610898565b005b61022a60048036038101906102259190612def565b6108f8565b005b61024660048036038101906102419190612f83565b610918565b60405161025391906136d6565b60405180910390f35b61027660048036038101906102719190612d8a565b6109ca565b6040516102839190613b35565b60405180910390f35b6102a660048036038101906102a19190612d8a565b610a82565b6040516102b39190613b35565b60405180910390f35b6102c4610a9a565b6040516102d191906137b1565b60405180910390f35b6102f460048036038101906102ef9190612eb9565b610b2c565b005b610310600480360381019061030b9190612f83565b610cad565b60405161032296959493929190613b50565b60405180910390f35b610333610df9565b604051610344959493929190613880565b60405180910390f35b61036760048036038101906103629190612e3e565b610f2d565b005b610371610f8f565b60405161037e9190613774565b60405180910390f35b6103a1600480360381019061039c9190612f83565b61113a565b6040516103ae91906137b1565b60405180910390f35b6103bf611355565b6040516103cc9190613b13565b60405180910390f35b6103dd61152d565b005b6103f960048036038101906103f49190612db3565b611891565b6040516104069190613796565b60405180910390f35b61042960048036038101906104249190612f83565b611925565b005b60007f80ac58cd000000000000000000000000000000000000000000000000000000007bffffffffffffffffffffffffffffffffffffffffffffffffffffffff1916827bffffffffffffffffffffffffffffffffffffffffffffffffffffffff191614806104f657507f5b5e139f000000000000000000000000000000000000000000000000000000007bffffffffffffffffffffffffffffffffffffffffffffffffffffffff1916827bffffffffffffffffffffffffffffffffffffffffffffffffffffffff1916145b80610506575061050582611dae565b5b9050919050565b610515612bb1565b600a6040518060a001604052908160008201805461053290613e96565b80601f016020809104026020016040519081016040528092919081815260200182805461055e90613e96565b80156105ab5780601f10610580576101008083540402835291602001916105ab565b820191906000526020600020905b81548152906001019060200180831161058e57829003601f168201915b505050505081526020016001820180546105c490613e96565b80601f01602080910402602001604051908101604052809291908181526020018280546105f090613e96565b801561063d5780601f106106125761010080835404028352916020019161063d565b820191906000526020600020905b81548152906001019060200180831161062057829003601f168201915b505050505081526020016002820154815260200160038201548152602001600482015481525050905090565b60606000805461067890613e96565b80601f01602080910402602001604051908101604052809291908181526020018280546106a490613e96565b80156106f15780601f106106c6576101008083540402835291602001916106f1565b820191906000526020600020905b8154815290600101906020018083116106d457829003601f168201915b5050505050905090565b600061070682611e18565b610745576040517f08c379a000000000000000000000000000000000000000000000000000000000815260040161073c90613a71565b60405180910390fd5b6004600083815260200190815260200160002060009054906101000a900473ffffffffffffffffffffffffffffffffffffffff169050919050565b600061078b82610918565b90508073ffffffffffffffffffffffffffffffffffffffff168373ffffffffffffffffffffffffffffffffffffffff1614156107fc576040517f08c379a00000000000000000000000000000000000000000000000000000000081526004016107f390613ab1565b60405180910390fd5b8073ffffffffffffffffffffffffffffffffffffffff1661081b611e84565b73ffffffffffffffffffffffffffffffffffffffff16148061084a575061084981610844611e84565b611891565b5b610889576040517f08c379a0000000000000000000000000000000000000000000000000000000008152600401610880906139d1565b60405180910390fd5b6108938383611e8c565b505050565b6108a96108a3611e84565b82611f45565b6108e8576040517f08c379a00000000000000000000000000000000000000000000000000000000081526004016108df90613ad1565b60405180910390fd5b6108f3838383612023565b505050565b61091383838360405180602001604052806000815250610f2d565b505050565b6000806002600084815260200190815260200160002060009054906101000a900473ffffffffffffffffffffffffffffffffffffffff169050600073ffffffffffffffffffffffffffffffffffffffff168173ffffffffffffffffffffffffffffffffffffffff1614156109c1576040517f08c379a00000000000000000000000000000000000000000000000000000000081526004016109b890613a11565b60405180910390fd5b80915050919050565b60008073ffffffffffffffffffffffffffffffffffffffff168273ffffffffffffffffffffffffffffffffffffffff161415610a3b576040517f08c379a0000000000000000000000000000000000000000000000000000000008152600401610a32906139f1565b60405180910390fd5b600360008373ffffffffffffffffffffffffffffffffffffffff1673ffffffffffffffffffffffffffffffffffffffff168152602001908152602001600020549050919050565b60096020528060005260406000206000915090505481565b606060018054610aa990613e96565b80601f0160208091040260200160405190810160405280929190818152602001828054610ad590613e96565b8015610b225780601f10610af757610100808354040283529160200191610b22565b820191906000526020600020905b815481529060010190602001808311610b0557829003601f168201915b5050505050905090565b610b34611e84565b73ffffffffffffffffffffffffffffffffffffffff168273ffffffffffffffffffffffffffffffffffffffff161415610ba2576040517f08c379a0000000000000000000000000000000000000000000000000000000008152600401610b9990613991565b60405180910390fd5b8060056000610baf611e84565b73ffffffffffffffffffffffffffffffffffffffff1673ffffffffffffffffffffffffffffffffffffffff16815260200190815260200160002060008473ffffffffffffffffffffffffffffffffffffffff1673ffffffffffffffffffffffffffffffffffffffff16815260200190815260200160002060006101000a81548160ff0219169083151502179055508173ffffffffffffffffffffffffffffffffffffffff16610c5c611e84565b73ffffffffffffffffffffffffffffffffffffffff167f17307eab39ab6107e8899845ad3d59bd9653f200f220920489ca2b5937696c3183604051610ca19190613796565b60405180910390a35050565b6008602052806000526040600020600091509050806000015490806001018054610cd690613e96565b80601f0160208091040260200160405190810160405280929190818152602001828054610d0290613e96565b8015610d4f5780601f10610d2457610100808354040283529160200191610d4f565b820191906000526020600020905b815481529060010190602001808311610d3257829003601f168201915b505050505090806002018054610d6490613e96565b80601f0160208091040260200160405190810160405280929190818152602001828054610d9090613e96565b8015610ddd5780601f10610db257610100808354040283529160200191610ddd565b820191906000526020600020905b815481529060010190602001808311610dc057829003601f168201915b5050505050908060030154908060040154908060050154905086565b600a806000018054610e0a90613e96565b80601f0160208091040260200160405190810160405280929190818152602001828054610e3690613e96565b8015610e835780601f10610e5857610100808354040283529160200191610e83565b820191906000526020600020905b815481529060010190602001808311610e6657829003601f168201915b505050505090806001018054610e9890613e96565b80601f0160208091040260200160405190810160405280929190818152602001828054610ec490613e96565b8015610f115780601f10610ee657610100808354040283529160200191610f11565b820191906000526020600020905b815481529060010190602001808311610ef457829003601f168201915b5050505050908060020154908060030154908060040154905085565b610f3e610f38611e84565b83611f45565b610f7d576040517f08c379a0000000000000000000000000000000000000000000000000000000008152600401610f7490613ad1565b60405180910390fd5b610f898484848461227f565b50505050565b60606007805480602002602001604051908101604052809291908181526020016000905b8282101561113157838290600052602060002090600602016040518060c001604052908160008201548152602001600182018054610ff090613e96565b80601f016020809104026020016040519081016040528092919081815260200182805461101c90613e96565b80156110695780601f1061103e57610100808354040283529160200191611069565b820191906000526020600020905b81548152906001019060200180831161104c57829003601f168201915b5050505050815260200160028201805461108290613e96565b80601f01602080910402602001604051908101604052809291908181526020018280546110ae90613e96565b80156110fb5780601f106110d0576101008083540402835291602001916110fb565b820191906000526020600020905b8154815290600101906020018083116110de57829003601f168201915b50505050508152602001600382015481526020016004820154815260200160058201548152505081526020019060010190610fb3565b50505050905090565b60606000600860008481526020019081526020016000206040518060c00160405290816000820154815260200160018201805461117690613e96565b80601f01602080910402602001604051908101604052809291908181526020018280546111a290613e96565b80156111ef5780601f106111c4576101008083540402835291602001916111ef565b820191906000526020600020905b8154815290600101906020018083116111d257829003601f168201915b5050505050815260200160028201805461120890613e96565b80601f016020809104026020016040519081016040528092919081815260200182805461123490613e96565b80156112815780601f1061125657610100808354040283529160200191611281565b820191906000526020600020905b81548152906001019060200180831161126457829003601f168201915b505050505081526020016003820154815260200160048201548152602001600582015481525050905060006112b982606001516122db565b905060006112ca83608001516122db565b905060006112db8460a001516122db565b9050600061132185602001516112f0896122db565b876040015187878760405160200161130d9695949392919061360f565b604051602081830303815290604052612488565b905060008160405160200161133691906136b4565b6040516020818303038152906040529050809650505050505050919050565b61135d612be0565b6000600960003373ffffffffffffffffffffffffffffffffffffffff1673ffffffffffffffffffffffffffffffffffffffff168152602001908152602001600020549050600081111561151c57600860008281526020019081526020016000206040518060c0016040529081600082015481526020016001820180546113e290613e96565b80601f016020809104026020016040519081016040528092919081815260200182805461140e90613e96565b801561145b5780601f106114305761010080835404028352916020019161145b565b820191906000526020600020905b81548152906001019060200180831161143e57829003601f168201915b5050505050815260200160028201805461147490613e96565b80601f01602080910402602001604051908101604052809291908181526020018280546114a090613e96565b80156114ed5780601f106114c2576101008083540402835291602001916114ed565b820191906000526020600020905b8154815290600101906020018083116114d057829003601f168201915b50505050508152602001600382015481526020016004820154815260200160058201548152505091505061152a565b611524612be0565b80925050505b90565b6000600960003373ffffffffffffffffffffffffffffffffffffffff1673ffffffffffffffffffffffffffffffffffffffff16815260200190815260200160002054905060006008600083815260200190815260200160002090506116406040518060600160405280603c815260200161473a603c91398260010180546115b390613e96565b80601f01602080910402602001604051908101604052809291908181526020018280546115df90613e96565b801561162c5780601f106116015761010080835404028352916020019161162c565b820191906000526020600020905b81548152906001019060200180831161160f57829003601f168201915b505050505083600301548460050154612646565b6117186040518060400160405280601b81526020017f426f73732025732068617320257320485020616e642025732041440000000000815250600a600001805461168990613e96565b80601f01602080910402602001604051908101604052809291908181526020018280546116b590613e96565b80156117025780601f106116d757610100808354040283529160200191611702565b820191906000526020600020905b8154815290600101906020018083116116e557829003601f168201915b5050505050600a60020154600a60040154612646565b600081600301541161175f576040517f08c379a000000000000000000000000000000000000000000000000000000000815260040161175690613a31565b60405180910390fd5b6000600a60020154116117a7576040517f08c379a000000000000000000000000000000000000000000000000000000000815260040161179e90613931565b60405180910390fd5b8060050154600a6002015410156117c8576000600a600201819055506117e7565b8060050154600a600201546117dd9190613dac565b600a600201819055505b600a60040154816003015410156118075760008160030181905550611825565b600a60040154816003015461181c9190613dac565b81600301819055505b61184b6040518060600160405280602881526020016147126028913982600301546126e8565b7f838ab28464562786a6c4ab2311964b82fa60bd9b14aa7e856af1f3f18d41a414600a600201548260030154604051611885929190613bbf565b60405180910390a15050565b6000600560008473ffffffffffffffffffffffffffffffffffffffff1673ffffffffffffffffffffffffffffffffffffffff16815260200190815260200160002060008373ffffffffffffffffffffffffffffffffffffffff1673ffffffffffffffffffffffffffffffffffffffff16815260200190815260200160002060009054906101000a900460ff16905092915050565b60006119316006612784565b905061193d3382612792565b6040518060c0016040528083815260200160078481548110611988577f4e487b7100000000000000000000000000000000000000000000000000000000600052603260045260246000fd5b906000526020600020906006020160010180546119a490613e96565b80601f01602080910402602001604051908101604052809291908181526020018280546119d090613e96565b8015611a1d5780601f106119f257610100808354040283529160200191611a1d565b820191906000526020600020905b815481529060010190602001808311611a0057829003601f168201915b5050505050815260200160078481548110611a61577f4e487b7100000000000000000000000000000000000000000000000000000000600052603260045260246000fd5b90600052602060002090600602016002018054611a7d90613e96565b80601f0160208091040260200160405190810160405280929190818152602001828054611aa990613e96565b8015611af65780601f10611acb57610100808354040283529160200191611af6565b820191906000526020600020905b815481529060010190602001808311611ad957829003601f168201915b5050505050815260200160078481548110611b3a577f4e487b7100000000000000000000000000000000000000000000000000000000600052603260045260246000fd5b906000526020600020906006020160030154815260200160078481548110611b8b577f4e487b7100000000000000000000000000000000000000000000000000000000600052603260045260246000fd5b906000526020600020906006020160030154815260200160078481548110611bdc577f4e487b7100000000000000000000000000000000000000000000000000000000600052603260045260246000fd5b90600052602060002090600602016005015481525060086000838152602001908152602001600020600082015181600001556020820151816001019080519060200190611c2a929190612c16565b506040820151816002019080519060200190611c47929190612c16565b50606082015181600301556080820151816004015560a0820151816005015590505080600960003373ffffffffffffffffffffffffffffffffffffffff1673ffffffffffffffffffffffffffffffffffffffff16815260200190815260200160002081905550611cb76006611d98565b7f4bc303fd457a97b4691b9af582ce71868a3d258638c8d4f8c60988a0f0bfb8cd338284604051611cea9392919061373d565b60405180910390a15050565b611d9284848484604051602401611d1094939291906137d3565b6040516020818303038152906040527f8d142cdd000000000000000000000000000000000000000000000000000000007bffffffffffffffffffffffffffffffffffffffffffffffffffffffff19166020820180517bffffffffffffffffffffffffffffffffffffffffffffffffffffffff83818316178352505050506127b0565b50505050565b6001816000016000828254019250508190555050565b60007f01ffc9a7000000000000000000000000000000000000000000000000000000007bffffffffffffffffffffffffffffffffffffffffffffffffffffffff1916827bffffffffffffffffffffffffffffffffffffffffffffffffffffffff1916149050919050565b60008073ffffffffffffffffffffffffffffffffffffffff166002600084815260200190815260200160002060009054906101000a900473ffffffffffffffffffffffffffffffffffffffff1673ffffffffffffffffffffffffffffffffffffffff1614159050919050565b600033905090565b816004600083815260200190815260200160002060006101000a81548173ffffffffffffffffffffffffffffffffffffffff021916908373ffffffffffffffffffffffffffffffffffffffff160217905550808273ffffffffffffffffffffffffffffffffffffffff16611eff83610918565b73ffffffffffffffffffffffffffffffffffffffff167f8c5be1e5ebec7d5bd14f71427d1e84f3dd0314c0f7b2291e5b200ac8c7c3b92560405160405180910390a45050565b6000611f5082611e18565b611f8f576040517f08c379a0000000000000000000000000000000000000000000000000000000008152600401611f86906139b1565b60405180910390fd5b6000611f9a83610918565b90508073ffffffffffffffffffffffffffffffffffffffff168473ffffffffffffffffffffffffffffffffffffffff16148061200957508373ffffffffffffffffffffffffffffffffffffffff16611ff1846106fb565b73ffffffffffffffffffffffffffffffffffffffff16145b8061201a57506120198185611891565b5b91505092915050565b8273ffffffffffffffffffffffffffffffffffffffff1661204382610918565b73ffffffffffffffffffffffffffffffffffffffff1614612099576040517f08c379a000000000000000000000000000000000000000000000000000000000815260040161209090613a91565b60405180910390fd5b600073ffffffffffffffffffffffffffffffffffffffff168273ffffffffffffffffffffffffffffffffffffffff161415612109576040517f08c379a000000000000000000000000000000000000000000000000000000000815260040161210090613971565b60405180910390fd5b6121148383836127d9565b61211f600082611e8c565b6001600360008573ffffffffffffffffffffffffffffffffffffffff1673ffffffffffffffffffffffffffffffffffffffff168152602001908152602001600020600082825461216f9190613dac565b925050819055506001600360008473ffffffffffffffffffffffffffffffffffffffff1673ffffffffffffffffffffffffffffffffffffffff16815260200190815260200160002060008282546121c69190613ccb565b92505081905550816002600083815260200190815260200160002060006101000a81548173ffffffffffffffffffffffffffffffffffffffff021916908373ffffffffffffffffffffffffffffffffffffffff160217905550808273ffffffffffffffffffffffffffffffffffffffff168473ffffffffffffffffffffffffffffffffffffffff167fddf252ad1be2c89b69c2b068fc378daa952ba7f163c4a11628f55a4df523b3ef60405160405180910390a4505050565b61228a848484612023565b612296848484846127de565b6122d5576040517f08c379a00000000000000000000000000000000000000000000000000000000081526004016122cc90613911565b60405180910390fd5b50505050565b60606000821415612323576040518060400160405280600181526020017f30000000000000000000000000000000000000000000000000000000000000008152509050612483565b600082905060005b6000821461235557808061233e90613ef9565b915050600a8261234e9190613d21565b915061232b565b60008167ffffffffffffffff811115612397577f4e487b7100000000000000000000000000000000000000000000000000000000600052604160045260246000fd5b6040519080825280601f01601f1916602001820160405280156123c95781602001600182028036833780820191505090505b5090505b6000851461247c576001826123e29190613dac565b9150600a856123f19190613f42565b60306123fd9190613ccb565b60f81b818381518110612439577f4e487b7100000000000000000000000000000000000000000000000000000000600052603260045260246000fd5b60200101907effffffffffffffffffffffffffffffffffffffffffffffffffffffffffffff1916908160001a905350600a856124759190613d21565b94506123cd565b8093505050505b919050565b606060008251905060008114156124b15760405180602001604052806000815250915050612641565b600060036002836124c29190613ccb565b6124cc9190613d21565b60046124d89190613d52565b905060006020826124e99190613ccb565b67ffffffffffffffff811115612528577f4e487b7100000000000000000000000000000000000000000000000000000000600052604160045260246000fd5b6040519080825280601f01601f19166020018201604052801561255a5781602001600182028036833780820191505090505b50905060006040518060600160405280604081526020016146d2604091399050600181016020830160005b868110156125fe5760038101905062ffffff818a015116603f8160121c168401518060081b905060ff603f83600c1c1686015116810190508060081b905060ff603f8360061c1686015116810190508060081b905060ff603f831686015116810190508060e01b90508084526004840193505050612585565b506003860660018114612618576002811461262857612633565b613d3d60f01b6002830352612633565b603d60f81b60018303525b508484525050819450505050505b919050565b6126e284848484604051602401612660949392919061382d565b6040516020818303038152906040527fd5cf17d0000000000000000000000000000000000000000000000000000000007bffffffffffffffffffffffffffffffffffffffffffffffffffffffff19166020820180517bffffffffffffffffffffffffffffffffffffffffffffffffffffffff83818316178352505050506127b0565b50505050565b61278082826040516024016126fe9291906138e1565b6040516020818303038152906040527f9710a9d0000000000000000000000000000000000000000000000000000000007bffffffffffffffffffffffffffffffffffffffffffffffffffffffff19166020820180517bffffffffffffffffffffffffffffffffffffffffffffffffffffffff83818316178352505050506127b0565b5050565b600081600001549050919050565b6127ac828260405180602001604052806000815250612975565b5050565b60008151905060006a636f6e736f6c652e6c6f679050602083016000808483855afa5050505050565b505050565b60006127ff8473ffffffffffffffffffffffffffffffffffffffff166129d0565b15612968578373ffffffffffffffffffffffffffffffffffffffff1663150b7a02612828611e84565b8786866040518563ffffffff1660e01b815260040161284a94939291906136f1565b602060405180830381600087803b15801561286457600080fd5b505af192505050801561289557506040513d601f19601f820116820180604052508101906128929190612f5a565b60015b612918573d80600081146128c5576040519150601f19603f3d011682016040523d82523d6000602084013e6128ca565b606091505b50600081511415612910576040517f08c379a000000000000000000000000000000000000000000000000000000000815260040161290790613911565b60405180910390fd5b805181602001fd5b63150b7a0260e01b7bffffffffffffffffffffffffffffffffffffffffffffffffffffffff1916817bffffffffffffffffffffffffffffffffffffffffffffffffffffffff19161491505061296d565b600190505b949350505050565b61297f83836129e3565b61298c60008484846127de565b6129cb576040517f08c379a00000000000000000000000000000000000000000000000000000000081526004016129c290613911565b60405180910390fd5b505050565b600080823b905060008111915050919050565b600073ffffffffffffffffffffffffffffffffffffffff168273ffffffffffffffffffffffffffffffffffffffff161415612a53576040517f08c379a0000000000000000000000000000000000000000000000000000000008152600401612a4a90613a51565b60405180910390fd5b612a5c81611e18565b15612a9c576040517f08c379a0000000000000000000000000000000000000000000000000000000008152600401612a9390613951565b60405180910390fd5b612aa8600083836127d9565b6001600360008473ffffffffffffffffffffffffffffffffffffffff1673ffffffffffffffffffffffffffffffffffffffff1681526020019081526020016000206000828254612af89190613ccb565b92505081905550816002600083815260200190815260200160002060006101000a81548173ffffffffffffffffffffffffffffffffffffffff021916908373ffffffffffffffffffffffffffffffffffffffff160217905550808273ffffffffffffffffffffffffffffffffffffffff16600073ffffffffffffffffffffffffffffffffffffffff167fddf252ad1be2c89b69c2b068fc378daa952ba7f163c4a11628f55a4df523b3ef60405160405180910390a45050565b6040518060a0016040528060608152602001606081526020016000815260200160008152602001600081525090565b6040518060c001604052806000815260200160608152602001606081526020016000815260200160008152602001600081525090565b828054612c2290613e96565b90600052602060002090601f016020900481019282612c445760008555612c8b565b82601f10612c5d57805160ff1916838001178555612c8b565b82800160010185558215612c8b579182015b82811115612c8a578251825591602001919060010190612c6f565b5b509050612c989190612c9c565b5090565b5b80821115612cb5576000816000905550600101612c9d565b5090565b6000612ccc612cc784613c0d565b613be8565b905082815260208101848484011115612ce457600080fd5b612cef848285613e54565b509392505050565b600081359050612d0681614675565b92915050565b600081359050612d1b8161468c565b92915050565b600081359050612d30816146a3565b92915050565b600081519050612d45816146a3565b92915050565b600082601f830112612d5c57600080fd5b8135612d6c848260208601612cb9565b91505092915050565b600081359050612d84816146ba565b92915050565b600060208284031215612d9c57600080fd5b6000612daa84828501612cf7565b91505092915050565b60008060408385031215612dc657600080fd5b6000612dd485828601612cf7565b9250506020612de585828601612cf7565b9150509250929050565b600080600060608486031215612e0457600080fd5b6000612e1286828701612cf7565b9350506020612e2386828701612cf7565b9250506040612e3486828701612d75565b9150509250925092565b60008060008060808587031215612e5457600080fd5b6000612e6287828801612cf7565b9450506020612e7387828801612cf7565b9350506040612e8487828801612d75565b925050606085013567ffffffffffffffff811115612ea157600080fd5b612ead87828801612d4b565b91505092959194509250565b60008060408385031215612ecc57600080fd5b6000612eda85828601612cf7565b9250506020612eeb85828601612d0c565b9150509250929050565b60008060408385031215612f0857600080fd5b6000612f1685828601612cf7565b9250506020612f2785828601612d75565b9150509250929050565b600060208284031215612f4357600080fd5b6000612f5184828501612d21565b91505092915050565b600060208284031215612f6c57600080fd5b6000612f7a84828501612d36565b91505092915050565b600060208284031215612f9557600080fd5b6000612fa384828501612d75565b91505092915050565b6000612fb883836134d1565b905092915050565b612fc981613de0565b82525050565b6000612fda82613c4e565b612fe48185613c7c565b935083602082028501612ff685613c3e565b8060005b8581101561303257848403895281516130138582612fac565b945061301e83613c6f565b925060208a01995050600181019050612ffa565b50829750879550505050505092915050565b61304d81613df2565b82525050565b600061305e82613c59565b6130688185613c8d565b9350613078818560208601613e63565b6130818161402f565b840191505092915050565b600061309782613c64565b6130a18185613c9e565b93506130b1818560208601613e63565b6130ba8161402f565b840191505092915050565b60006130d082613c64565b6130da8185613caf565b93506130ea818560208601613e63565b6130f38161402f565b840191505092915050565b600061310982613c64565b6131138185613cc0565b9350613123818560208601613e63565b80840191505092915050565b600061313c600b83613cc0565b915061314782614040565b600b82019050919050565b600061315f603283613caf565b915061316a82614069565b604082019050919050565b6000613182602883613caf565b915061318d826140b8565b604082019050919050565b60006131a5601c83613caf565b91506131b082614107565b602082019050919050565b60006131c8600e83613cc0565b91506131d382614130565b600e82019050919050565b60006131eb602483613caf565b91506131f682614159565b604082019050919050565b600061320e601983613caf565b9150613219826141a8565b602082019050919050565b6000613231602c83613caf565b915061323c826141d1565b604082019050919050565b6000613254603883613caf565b915061325f82614220565b604082019050919050565b6000613277602a83613caf565b91506132828261426f565b604082019050919050565b600061329a602983613caf565b91506132a5826142be565b604082019050919050565b60006132bd606283613cc0565b91506132c88261430d565b606282019050919050565b60006132e0602d83613caf565b91506132eb826143a8565b604082019050919050565b6000613303600483613cc0565b915061330e826143f7565b600482019050919050565b6000613326602083613caf565b915061333182614420565b602082019050919050565b6000613349602c83613caf565b915061335482614449565b604082019050919050565b600061336c602983613caf565b915061337782614498565b604082019050919050565b600061338f600a83613cc0565b915061339a826144e7565b600a82019050919050565b60006133b2602183613caf565b91506133bd82614510565b604082019050919050565b60006133d5601d83613cc0565b91506133e08261455f565b601d82019050919050565b60006133f8603183613caf565b915061340382614588565b604082019050919050565b600061341b603d83613cc0565b9150613426826145d7565b603d82019050919050565b600061343e602d83613cc0565b915061344982614626565b602d82019050919050565b600060a0830160008301518482036000860152613471828261308c565b9150506020830151848203602086015261348b828261308c565b91505060408301516134a060408601826135f1565b5060608301516134b360608601826135f1565b5060808301516134c660808601826135f1565b508091505092915050565b600060c0830160008301516134e960008601826135f1565b5060208301518482036020860152613501828261308c565b9150506040830151848203604086015261351b828261308c565b915050606083015161353060608601826135f1565b50608083015161354360808601826135f1565b5060a083015161355660a08601826135f1565b508091505092915050565b600060c08301600083015161357960008601826135f1565b5060208301518482036020860152613591828261308c565b915050604083015184820360408601526135ab828261308c565b91505060608301516135c060608601826135f1565b5060808301516135d360808601826135f1565b5060a08301516135e660a08601826135f1565b508091505092915050565b6135fa81613e4a565b82525050565b61360981613e4a565b82525050565b600061361a82613382565b915061362682896130fe565b91506136318261312f565b915061363d82886130fe565b9150613648826132b0565b915061365482876130fe565b915061365f8261340e565b915061366b82866130fe565b9150613676826131bb565b915061368282856130fe565b915061368d82613431565b915061369982846130fe565b91506136a4826132f6565b9150819050979650505050505050565b60006136bf826133c8565b91506136cb82846130fe565b915081905092915050565b60006020820190506136eb6000830184612fc0565b92915050565b60006080820190506137066000830187612fc0565b6137136020830186612fc0565b6137206040830185613600565b81810360608301526137328184613053565b905095945050505050565b60006060820190506137526000830186612fc0565b61375f6020830185613600565b61376c6040830184613600565b949350505050565b6000602082019050818103600083015261378e8184612fcf565b905092915050565b60006020820190506137ab6000830184613044565b92915050565b600060208201905081810360008301526137cb81846130c5565b905092915050565b600060808201905081810360008301526137ed81876130c5565b9050818103602083015261380181866130c5565b90506138106040830185613600565b818103606083015261382281846130c5565b905095945050505050565b6000608082019050818103600083015261384781876130c5565b9050818103602083015261385b81866130c5565b905061386a6040830185613600565b6138776060830184613600565b95945050505050565b600060a082019050818103600083015261389a81886130c5565b905081810360208301526138ae81876130c5565b90506138bd6040830186613600565b6138ca6060830185613600565b6138d76080830184613600565b9695505050505050565b600060408201905081810360008301526138fb81856130c5565b905061390a6020830184613600565b9392505050565b6000602082019050818103600083015261392a81613152565b9050919050565b6000602082019050818103600083015261394a81613175565b9050919050565b6000602082019050818103600083015261396a81613198565b9050919050565b6000602082019050818103600083015261398a816131de565b9050919050565b600060208201905081810360008301526139aa81613201565b9050919050565b600060208201905081810360008301526139ca81613224565b9050919050565b600060208201905081810360008301526139ea81613247565b9050919050565b60006020820190508181036000830152613a0a8161326a565b9050919050565b60006020820190508181036000830152613a2a8161328d565b9050919050565b60006020820190508181036000830152613a4a816132d3565b9050919050565b60006020820190508181036000830152613a6a81613319565b9050919050565b60006020820190508181036000830152613a8a8161333c565b9050919050565b60006020820190508181036000830152613aaa8161335f565b9050919050565b60006020820190508181036000830152613aca816133a5565b9050919050565b60006020820190508181036000830152613aea816133eb565b9050919050565b60006020820190508181036000830152613b0b8184613454565b905092915050565b60006020820190508181036000830152613b2d8184613561565b905092915050565b6000602082019050613b4a6000830184613600565b92915050565b600060c082019050613b656000830189613600565b8181036020830152613b7781886130c5565b90508181036040830152613b8b81876130c5565b9050613b9a6060830186613600565b613ba76080830185613600565b613bb460a0830184613600565b979650505050505050565b6000604082019050613bd46000830185613600565b613be16020830184613600565b9392505050565b6000613bf2613c03565b9050613bfe8282613ec8565b919050565b6000604051905090565b600067ffffffffffffffff821115613c2857613c27614000565b5b613c318261402f565b9050602081019050919050565b6000819050602082019050919050565b600081519050919050565b600081519050919050565b600081519050919050565b6000602082019050919050565b600082825260208201905092915050565b600082825260208201905092915050565b600082825260208201905092915050565b600082825260208201905092915050565b600081905092915050565b6000613cd682613e4a565b9150613ce183613e4a565b9250827fffffffffffffffffffffffffffffffffffffffffffffffffffffffffffffffff03821115613d1657613d15613f73565b5b828201905092915050565b6000613d2c82613e4a565b9150613d3783613e4a565b925082613d4757613d46613fa2565b5b828204905092915050565b6000613d5d82613e4a565b9150613d6883613e4a565b9250817fffffffffffffffffffffffffffffffffffffffffffffffffffffffffffffffff0483118215151615613da157613da0613f73565b5b828202905092915050565b6000613db782613e4a565b9150613dc283613e4a565b925082821015613dd557613dd4613f73565b5b828203905092915050565b6000613deb82613e2a565b9050919050565b60008115159050919050565b60007fffffffff0000000000000000000000000000000000000000000000000000000082169050919050565b600073ffffffffffffffffffffffffffffffffffffffff82169050919050565b6000819050919050565b82818337600083830152505050565b60005b83811015613e81578082015181840152602081019050613e66565b83811115613e90576000848401525b50505050565b60006002820490506001821680613eae57607f821691505b60208210811415613ec257613ec1613fd1565b5b50919050565b613ed18261402f565b810181811067ffffffffffffffff82111715613ef057613eef614000565b5b80604052505050565b6000613f0482613e4a565b91507fffffffffffffffffffffffffffffffffffffffffffffffffffffffffffffffff821415613f3757613f36613f73565b5b600182019050919050565b6000613f4d82613e4a565b9150613f5883613e4a565b925082613f6857613f67613fa2565b5b828206905092915050565b7f4e487b7100000000000000000000000000000000000000000000000000000000600052601160045260246000fd5b7f4e487b7100000000000000000000000000000000000000000000000000000000600052601260045260246000fd5b7f4e487b7100000000000000000000000000000000000000000000000000000000600052602260045260246000fd5b7f4e487b7100000000000000000000000000000000000000000000000000000000600052604160045260246000fd5b6000601f19601f8301169050919050565b7f202d2d204e465420233a20000000000000000000000000000000000000000000600082015250565b7f4552433732313a207472616e7366657220746f206e6f6e20455243373231526560008201527f63656976657220696d706c656d656e7465720000000000000000000000000000602082015250565b7f4572726f723a20626f7373206d757374206861766520485020746f206174746160008201527f636b20626f73732e000000000000000000000000000000000000000000000000602082015250565b7f4552433732313a20746f6b656e20616c7265616479206d696e74656400000000600082015250565b7f2c20226d61785f76616c7565223a000000000000000000000000000000000000600082015250565b7f4552433732313a207472616e7366657220746f20746865207a65726f2061646460008201527f7265737300000000000000000000000000000000000000000000000000000000602082015250565b7f4552433732313a20617070726f766520746f2063616c6c657200000000000000600082015250565b7f4552433732313a206f70657261746f7220717565727920666f72206e6f6e657860008201527f697374656e7420746f6b656e0000000000000000000000000000000000000000602082015250565b7f4552433732313a20617070726f76652063616c6c6572206973206e6f74206f7760008201527f6e6572206e6f7220617070726f76656420666f7220616c6c0000000000000000602082015250565b7f4552433732313a2062616c616e636520717565727920666f7220746865207a6560008201527f726f206164647265737300000000000000000000000000000000000000000000602082015250565b7f4552433732313a206f776e657220717565727920666f72206e6f6e657869737460008201527f656e7420746f6b656e0000000000000000000000000000000000000000000000602082015250565b7f222c20226465736372697074696f6e223a20225468697320697320616e204e4660008201527f542074686174206c6574732070656f706c6520706c617920696e20746865206760208201527f616d65204d657461766572736520536c6179657221222c2022696d616765223a60408201527f2022000000000000000000000000000000000000000000000000000000000000606082015250565b7f4572726f723a20636861726163746572206d757374206861766520485020746f60008201527f2061747461636b20626f73732e00000000000000000000000000000000000000602082015250565b7f7d205d7d00000000000000000000000000000000000000000000000000000000600082015250565b7f4552433732313a206d696e7420746f20746865207a65726f2061646472657373600082015250565b7f4552433732313a20617070726f76656420717565727920666f72206e6f6e657860008201527f697374656e7420746f6b656e0000000000000000000000000000000000000000602082015250565b7f4552433732313a207472616e73666572206f6620746f6b656e2074686174206960008201527f73206e6f74206f776e0000000000000000000000000000000000000000000000602082015250565b7f7b226e616d65223a202200000000000000000000000000000000000000000000600082015250565b7f4552433732313a20617070726f76616c20746f2063757272656e74206f776e6560008201527f7200000000000000000000000000000000000000000000000000000000000000602082015250565b7f646174613a6170706c69636174696f6e2f6a736f6e3b6261736536342c000000600082015250565b7f4552433732313a207472616e736665722063616c6c6572206973206e6f74206f60008201527f776e6572206e6f7220617070726f766564000000000000000000000000000000602082015250565b7f222c202261747472696275746573223a205b207b202274726169745f7479706560008201527f223a20224865616c746820506f696e7473222c202276616c7565223a20000000602082015250565b7f7d2c207b202274726169745f74797065223a202241747461636b2044616d616760008201527f65222c202276616c7565223a2000000000000000000000000000000000000000602082015250565b61467e81613de0565b811461468957600080fd5b50565b61469581613df2565b81146146a057600080fd5b50565b6146ac81613dfe565b81146146b757600080fd5b50565b6146c381613e4a565b81146146ce57600080fd5b5056fe4142434445464748494a4b4c4d4e4f505152535455565758595a6162636465666768696a6b6c6d6e6f707172737475767778797a303132333435363738392b2f426f73732061747461636b656420706c617965722e204e657720706c617965722068703a2025730a0a506c6179657220772f206368617261637465722025732061626f757420746f2061747461636b2e2048617320257320485020616e64202573204144a2646970667358221220b4d09a15cc3bfe646642d3c50e6973eaf2aad996f04ae03abe5263f34ce0683a64736f6c63430008040033446f6e6520696e7469616c697a696e6720257320772f2025732e20696d67202573446f6e6520696e697469616c697a696e6720626f737320257320772f2048502025732c20696d67202573",
  "linkReferences": {},
  "deployedLinkReferences": {}
}